:020000040800F2
:10000000E8CF0020399C00085D1B00085F1B00083A
:10001000631B0008671B00086B1B00080000000042
:100020000000000000000000000000006F1B00083E
:10003000711B000800000000731B0008751B0008FE
:10004000539C0008539C0008539C0008539C0008D4
:10005000539C0008539C0008539C0008539C0008C4
:10006000539C0008539C0008539C0008539C0008B4
:10007000539C0008539C0008539C0008539C0008A4
:10008000539C0008539C0008539C0008539C000894
:10009000539C0008539C0008539C0008539C000884
:1000A000539C0008539C0008539C0008539C000874
:1000B000539C0008C37300086D090108539C000895
:1000C000539C0008539C0008539C0008539C000854
:1000D000539C0008AD9B0008FF970008539C000844
:1000E000539C0008539C0008539C0008539C000834
:1000F000539C0008539C0008539C0008539C000824
:10010000539C0008B9710008539C0008539C0008D8
:10011000539C0008539C0008539C0008539C000803
:10012000539C0008539C0008539C0008539C0008F3
:1001300000F002F800F0B0F80AA090E8000C824449
:100140008344AAF10107DA4501D100F0A5F8AFF226
:10015000090EBAE80F0013F0010F18BFFB1A43F0A5
:1001600001031847B46B0100D46B01000A444FF03F
:10017000000C10F8013B13F0070408BF10F8014B06
:100180001D1108BF10F8015B641E05D010F8016B4B
:10019000641E01F8016BF9D113F0080F1EBF10F8AF
:1001A000014BAD1C0C1B09D16D1E58BF01F801CBD2
:1001B000FAD505E014F8016B01F8016B6D1EF9D555
:1001C0009142D6D37047000000230024002500266A
:1001D000103A28BF78C1FBD8520728BF30C148BFAA
:1001E0000B6070476E2912F07682702911F08387B8
:1001F000662914F01885652914F01585672914F00F
:100200001285612914F0118503681B0A28BF41F08B
:100210008001692911F0F686642911F0F3867529A9
:1002200011F0F0866F2912F06D83782911F04F8755
:10023000E92912F00983E42912F00683F52912F066
:100240000383EF2912F06A83F82911F04E870368BF
:10025000DB0928BF41F08001632912F078827329FD
:1002600012F07D82E32912F09F87F32912F0A48710
:10027000002070471FB513F059F80400002000213A
:1002800013F014FD401C60600020002113F024FDD9
:10029000E0601FBD10B510BD13F023F81146FFF745
:1002A000E9FF01F0B9FB13F0FFF803B4FFF7F2FF29
:1002B00003BC09F021FC000010B58AB01422FEA195
:1002C00005A812F0A1F809F0A7FB4FF4A06009F00F
:1002D000D3FC4FF4E13009F01DFC4FF4E13009F09C
:1002E0003DFAFA4841684820884701F035FD01F0A1
:1002F00059FD02F013FAF6490868804705F088F8BE
:1003000000200CF04EFB0FF0BDFEF2490122086800
:10031000F1A10EF046F8EF4901224868EFA10EF076
:1003200040F811F042FB05F076FFED49097840F204
:10033000712251430122C2EB011188B241F61F41E3
:1003400007F012F80122E749E74809F0D9FAE54831
:10035000007820B9E5480078E149087003E0E148F9
:100360000078DF490870002404E00020E0490855C7
:10037000601CC4B2DD4800788442F6DD0220002112
:100380001822DCA3CDE90032CDE902101346FA228F
:100390002821842011F015FC00248BE0012000218D
:1003A0001022D9A3CDE90032CDE90210D848006867
:1003B000502202FB040081B21023C8221E2011F03B
:1003C00000FC01210022102305A800EB4400CDE928
:1003D000013203910090CE480068502202FB0400D5
:1003E00081B214223E2011F0ECFB022000211022E9
:1003F000C8A3CDE90032CDE90210C54800685022FB
:1004000002FB040081B21023FA22732011F0D9FB01
:10041000012000211022C1A3CDE90032CDE9021054
:10042000BB4800681430502202FB040081B2102344
:10043000C8221E2011F0C5FB022000211022B9A302
:10044000CDE90032CDE90210B148006814305022E5
:1004500002FB040081B21023C822732011F0B1FB0B
:10046000012000211022B0A3CDE90032CDE9021015
:10047000A74800682830502202FB040081B21023F4
:10048000C8221E2011F09DFB022000211022A8A3EB
:10049000CDE90032CDE902109D4800682830502295
:1004A00002FB040081B21023C822732011F089FBE3
:1004B000601CC4B28A4800788442FFF66FAF022005
:1004C000002118229BA3CDE90032CDE9021013468A
:1004D000FA2240F202314FF4D97011F072FB02207F
:1004E0000021182294A3CDE90032CDE90210134671
:1004F000FA2240F202310A2011F063FB642009F075
:10050000C8FA02218EA009F0B7F90AB010BD01B5F2
:1005100086B00698A0BB4FF6FF704FF448733C229C
:1005200040F2023100900A2004F035FC0220002144
:10053000182281A3CDE90032CDE902101346FA2238
:1005400040F202310A2011F03CFB4FF6FF700090A0
:100550007D480088401D80B205907C480088401D81
:1005600080B204907A480088401F80B20390794896
:100570000088401F80B2029003A90EC904F00BFC52
:10058000069801287ED14FF6FF704FF448733C2245
:1005900040F2023100900A2004F0FDFB022000210D
:1005A00018226DA3CDE90032CDE902101346FA22DC
:1005B00040F202310A2011F004FB4FF6FF70009068
:1005C00061480088401F80B2059060480088401F45
:1005D00080B204905E480088401D80B203905D4860
:1005E0000088401D80B2029003A90EC904F0D3FB1D
:1005F0004FF478400121CDE900105348008880B2C3
:1006000005905448008880B204905148008880B218
:1006100003905048008880B2029003A90EC911F0DF
:10062000EAFB4FF478400121CDE9001046480088EC
:1006300080B205904548008880B204904448008804
:1006400080B203904148008880B2029003A90EC98D
:1006500011F0D1FB4FF478400121CDE900103C4866
:10066000008880B205903948008880B204903848EC
:10067000008880B203903748008880B2029003A9B6
:100680000EC900E0B4E011F0B6FB4FF47840012150
:10069000CDE900102C48008880B205902B480088D6
:1006A00080B204902848008880B2039029480088CE
:1006B00080B2029003A953E0D2BBB6FEC8FDCBC402
:1006C000CEE5C1F9C6DFB0CB000000003C01002040
:1006D0005C000020EC000020303A0000313A0000BD
:1006E0000100002003000020000007080000002097
:1006F00004000020BBAFB9A4D2C7B1EDCDF8BCE077
:10070000BFD8CFB5CDB30000C9E8B1B80000000034
:100710002C00002057414954494E4700CEC2B6C86C
:10072000A3BA000043000000CAAAB6C8A3BA0000DA
:100730002500000052535400B2CBB5A500000000C4
:1007400025640D0A00000000280000202000002081
:10075000240000201C000020B7B5BBD8000000001A
:100760000EC911F048FB012000211822FCA3CDE99D
:100770000032CDE90210FE4800880A3080B20590B0
:10078000FC4800880A3080B21346FA22049005998A
:1007900011F017FA012000211822F7A3CDE9003249
:1007A000CDE90210F24800883C3080B20590F14853
:1007B00000880A3080B21346FA220490059911F09D
:1007C00000FA012000211822F0A3CDE90032CDE982
:1007D0000210E74800886E3080B20590E548008836
:1007E0000A3080B21346FA220490059911F0E9F913
:1007F000069802287ED14FF6FF700090E7480088E7
:10080000401F80B20590E6480088401F80B20490E7
:10081000D7480088401D80B20390D6480088401D0C
:1008200080B2029003A90EC904F0B5FA1820009016
:10083000CF480088143080B20590CE48008814302C
:1008400080B2022301220490059904F055FC18207F
:100850000090C7480088143080B20590C5480088D1
:100860005A3080B202231A460490059904F044FCE1
:1008700018200090BE480088143080B20590BD4812
:100880000088A03080B2022303220490059904F06E
:1008900033FC18200090B64800886E3080B2059076
:1008A000B4480088143080B20223042204900599D1
:1008B00004F022FC18200090AD4800886E3080B211
:1008C0000590AC4800885A3080B20223052204907B
:1008D000059904F011FC18200090A54800886E309E
:1008E00080B20590A3480088A03080B2022306227F
:1008F000049000E06BE0059904F0FEFB18200090E6
:100900009B480088C83080B205909A4800883730EC
:1009100080B2022307220490059904F0EDFB182011
:10092000009093480088C83080B2059091480088B4
:100930007D3080B2022308220490059904F0DCFB8C
:1009400001200021182297A3CDE90032CDE9021041
:1009500087480088FA3080B20590864800880A30BF
:1009600080B21346FA220490059911F02AF9012069
:10097000002110228FA3CDE90032CDE902107C487E
:10098000008800F58C7080B205907A4800880A30A3
:1009900080B21346FA220490059911F012F9012051
:1009A0000021182289A3CDE90032CDE90210704858
:1009B000008800F59B7080B205906E4800880A3070
:1009C00080B21346FA220490059911F0FAF807B0A4
:1009D00000BD38B504467F4830F814006549096801
:1009E000884269DD7B4830F8141062480068343072
:1009F000814261DA77480A3030F814005C490968AE
:100A0000884259DD73480A3030F81410584800689D
:100A10004030814250DA7048007802284CD104E01E
:100A20006C480C384168002088476A4830F8140048
:100A300050490968884218DD664830F814104D485E
:100A400000684030814210DA62480A3030F8140001
:100A500047490968884208DD5E480A3030F81410BA
:100A60004348006834308142DADB01205B4908707A
:100A70004FF6FF703E4D00902D8805F20715ABB282
:100A80003C4D2D88A335AAB2394D2D88FA35A9B22F
:100A9000384D2D889635A8B204F07DF91820344AD7
:100AA00000901288FA3291B2324A1288963290B28D
:100AB0000223012204F020FB464830F814102D4890
:100AC00000684630814249DD424830F81410294818
:100AD00000686E30814241DA3E480A3030F8140036
:100AE00023490968884239DD3A480A3030F8141041
:100AF0001F4800683430814230DA374800780228D5
:100B00002CD104E033480C38416800208847314834
:100B100030F81410174800684630814218DD2D481F
:100B200030F81410134800686E30814210DA2948FA
:100B30000A3030F814000E490968884208DD25485B
:100B40000A3030F814100A48006834308142D9DB8A
:100B50000220224908704FF6FF7041E062E0000079
:100B6000312E5A6967626565D6D8D7E9CDF800009D
:100B7000240000201C000020322EBBF1C8A1D6D5D5
:100B8000B6CBC1ACBDD3D0C5CFA20000332ECAE4D2
:100B9000C8EBD6D5B6CBCAFDC1BF000028000020E7
:100BA00020000020D6D5B6CBCAFD28312D3829A388
:100BB000BA000000D7A23AD0EBB4F3D3DAB5C8D369
:100BC000DACAB5BCCAC1ACBDD3CAFD00C8B7B6A8A5
:100BD0000000000068000020180000200300002032
:100BE000FE4D00902D8805F20715ABB2FC4D2D8807
:100BF000A335AAB2F94D2D88FA35A9B2F84D2D8842
:100C00009635A8B204F0C7F81820F44A009012886C
:100C1000FA3291B2F24A1288963290B202231A4600
:100C200004F06AFAEF4830F81410ED4800687830A4
:100C3000814269DDEB4830F81410E9480068C8309B
:100C4000814261DAE7480A3030F81400E349096864
:100C5000884259DDE3480A3030F81410DF48006854
:100C60003430814250DAE048007802284CD104E068
:100C7000DC480C38416800208847DA4830F8140016
:100C8000D7490968884218DDD64830F81410D4488E
:100C900000682830814210DAD2480A3030F8140057
:100CA000CE490968884208DDCE480A3030F8141071
:100CB000CA48006828308142DADB0320CB4908703B
:100CC0004FF6FF70C54D00902D8805F20715ABB2A9
:100CD000C34D2D88A335AAB2C04D2D88FA35A9B2CF
:100CE000BF4D2D889635A8B204F055F81820BB4AA0
:100CF00000901288FA3291B2B94A1288963290B2B4
:100D00000223032204F0F8F9B64830F81400B4497D
:100D1000096888426BDDB34830F81410B0480068A9
:100D20003430814263DAAF480A3030F81410AB48EF
:100D300000685A3081425ADDAA480A3030F814104F
:100D4000A64800689A30814251DAA7480078022804
:100D50004DD104E0A3480C38416800208847A148E1
:100D600030F814009E490968884219DD9D4830F822
:100D700014109B4800684030814211DA99480A30CB
:100D800030F81410954800685A30814208DD9548C3
:100D90000A3030F81410914800689A308142D9DB4B
:100DA0000420924908704FF6FF708C4D00902D88FA
:100DB00005F20715ABB28A4D2D88A335AAB2874D2F
:100DC0002D88FA35A9B2864D2D889635A8B203F044
:100DD000E2FF1820814A00901288FA3291B2804ACC
:100DE0001288963290B20223042204F085F97D48DD
:100DF00030F814107A480068463081426CDD79483A
:100E000030F81410764800686E30814264DA754814
:100E10000A3030F81410714800685A3081425BDDA6
:100E200070480A3030F814106C4800689A308142DB
:100E300052DA6D48007802284ED104E069480C3837
:100E4000416800208847674830F8141064480068FB
:100E50004630814219DD634830F81410604800685C
:100E60006E30814211DA5F480A3030F814105B4866
:100E700000685A30814208DD5A480A3030F81410B0
:100E8000564800689A308142D8DB052057490870DF
:100E90004FF6FF70514D00902D8805F20715ABB24B
:100EA0004F4D2D88A335AAB24C4D2D88FA35A9B2E5
:100EB0004B4D2D889635A8B203F06DFF1820474A98
:100EC00000901288FA3291B2454A1288963290B256
:100ED0000223052204F010F9424830F8141040486B
:100EE0000068783081426ADD3E4830F814103C4892
:100EF0000068C830814262DA3A480A3030F814108B
:100F0000364800685A30814259DD36480A3030F898
:100F10001410324800689A30814250DA3248007822
:100F200002284CD104E02F480C3841680020884743
:100F30002C4830F814002A490968884218DD2948ED
:100F400030F81410264800682830814210DA25480D
:100F50000A3030F8140021490968884208DD214828
:100F60000A3030F814101D48006828308142DADB5E
:100F700006201E4908704FF6FF70184D00902D880E
:100F800005F20715ABB2164D2D88A335AAB2134D45
:100F90002D88FA35A9B2124D2D889635A8B203F0E6
:100FA000FAFE18200D4A00901288FA3291B20C4ACB
:100FB0001288963290B20223062204F09DF8094866
:100FC00030F81410064800682330814275DD05486A
:100FD00030F8141002480068573009E0240000205F
:100FE0001C000020680000201800002003000020E2
:100FF000814262DAFE4830F81410FE480068B430CE
:1010000081425ADDFA4830F81410FA480068F4308A
:10101000814252DAF848007802284ED104E0F448C0
:101020001638416800208847F1480A3830F8141013
:10103000F24800682330814218DDED480A3830F864
:101040001410EE480068573081420FDAE84830F853
:101050001410E8480068B430814207DDE44830F8F5
:101060001410E4480068F4308142D8DB0720E449DA
:1010700008704FF6FF70DF4D00902D8805F20715C0
:10108000ABB2DE4D2D88A335AAB2DA4D2D88FA35E4
:10109000A9B2DA4D2D889635A8B203F07CFE18204F
:1010A000D44A00901288FA3291B2D44A1288963209
:1010B00090B20223072204F01FF8CD480A3830F816
:1010C0001410CE480068693081426BDDC8480A3888
:1010D00030F81410C94800689D30814262DAC44873
:1010E00030F81410C3480068B43081425ADDC0485B
:1010F00030F81410BF480068F430814252DABE481C
:10110000007802284ED104E0B94816384168002022
:101110008847B7480A3830F81410B8480068693072
:10112000814218DDB2480A3830F81410B34800681C
:101130009D3081420FDAAE4830F81410AD48006897
:10114000B430814207DDAA4830F81410A94800687D
:10115000F4308142D8DB0820A94908704FF6FF70AF
:10116000A44D00902D8805F20715ABB2A34D2D8834
:10117000A335AAB29F4D2D88FA35A9B29F4D2D886F
:101180009635A8B203F007FE18209A4A00901288FC
:10119000FA3291B2994A1288963290B2022308220A
:1011A00003F0AAFF38BD10B586B000249048163869
:1011B00041680020884700BF30E28D48163890F81B
:1011C00020100120A040014000297DD088480A3825
:1011D00030F814008B490988884276DA844830F860
:1011E0001400884949888842F7DA8148163890F80F
:1011F000200000F08000002867D001A830F824000B
:101200004FF6FF7188420CD179480A3830F8140043
:1012100001A921F82400764830F8140001EB84017C
:10122000488073480A3830F81400B0F5D77F13DDD2
:101230006F4830F8140040F2FD2188420CDDFFF7C2
:101240003BF871480078401C6F49087000206A49DB
:101250000870322008F01DFC65480A3830F8140088
:101260003A2822DA624830F8140040F2023188420B
:101270001BDD61480078C0B904E05D48163841685C
:10128000002088475A480A3830F814003A2806DA0D
:10129000574830F8140040F202318842EDDC01205A
:1012A000FFF735F901205449087051480A3830F8E1
:1012B00014003A2829DA4E4830F8140040F202317E
:1012C000884222DD4C4801E0A1E19FE1007801283D
:1012D0001BDB04E046481638416800208847444834
:1012E0000A3830F814003A2806DA414830F8140079
:1012F00040F202318842EDDC3F480078401E3E4912
:10130000087008460078FFF702F939480A3830F8C3
:1013100014103A4800680A30814249DD34480A38DE
:1013200030F8141035480068A830814240DA30485F
:1013300030F814102F4800680A30814238DD2C48FC
:1013400030F814102B4800682230814230DA2A48E5
:10135000007801282CD104E0254816384168002087
:10136000884723480A3830F81410244800680A30A7
:10137000814218DD1E480A3830F814101F480068F2
:10138000A83081420FDA1A4830F814101948006862
:101390000A30814207DD164830F8141015480068FD
:1013A00022308142D8DB0121AFF66C4008F064FAAC
:1013B0000F480A3830F81410104800680A3081428B
:1013C00061DD0B480A3830F814100C480068D8303A
:1013D000814258DA064830F81410064800683C305C
:1013E000814250DD024830F81410024800680DE0D8
:1013F0007200002024000020180000201C000020A3
:1014000003000020340200201900002054308142E3
:1014100039DAFE480078012835D103E0FC484168FC
:1014200000208847FA480C3030F81410F94800685A
:101430000A3081421ADDF6480C3030F81410F548B5
:101440000068D830814211DAF148163030F81410B3
:10145000F14800683C30814208DDED48163030F834
:101460001410ED48006854308142D7DB0221AFF6FA
:10147000305008F001FA0120E84908700020E849DE
:101480000870E8490870E2480C3030F81410E14860
:1014900000680A3081424DDDDD480C3030F8141010
:1014A000DC480068A830814244DAD948163030F868
:1014B0001410D94800686E3081423BDDD4481630A4
:1014C00030F81410D44800688630814232DACF48B0
:1014D000007801282ED103E0CD48416800208847DC
:1014E000CB480C3030F81410CA4800680A308142EA
:1014F0001ADDC7480C3030F81410C6480068A83010
:10150000814211DAC248163030F81410C24800681F
:101510006E30814208DDBE48163030F81410BE48E7
:10152000006886308142D7DB0220FEF7F0FF022000
:10153000B64908702046FFF74CFAB5480C3030F831
:101540001410B4480068401D814265DDB0480C307D
:1015500030F81410AF4800683C3081425CDAAC4887
:10156000163030F81410AC48006800F23110814297
:1015700052DDA748163030F81410A748006800F56F
:10158000AA70814248DAA1480078022844D103E0D9
:101590009F484168002088479D480C3030F814105F
:1015A0009C480068401D81421CDD99480C3030F891
:1015B0001410984800683C30814213DA9448163081
:1015C00030F814109448006800F23110814209DDAF
:1015D0008F48163030F814108F48006800F5AA7054
:1015E0008142D5DB01229049904808F09AF9002009
:1015F00086490870FEF760FE03218DA008F03CF9D3
:101600000120FEF784FF01208049087004E04FF6B6
:10161000FF7001A921F82400601CC4B2052CFFF65C
:10162000CCAD052008F035FA06B010BD2DE9F04F1D
:1016300089B04FF00008002700250026A946AA46D9
:101640007DA008907DA007907DA006907DA00590CC
:101650007D48089910F032FE0490089910F028FE99
:10166000834610F017FEC5B27748079910F026FEA2
:101670000490079910F01CFE834610F00BFEC6B2D2
:101680007148069910F01AFE0490069910F010FEA9
:10169000834610F0FFFD00F0FF096B48059910F03C
:1016A0000DFE0490059910F003FE834610F0F2FD44
:1016B00000F0FF0A002D3ED06448007885423ADCF5
:1016C00056480078A8B94FF6FF700090681E604A2F
:1016D00012684FF0500C0CFB0020113083B2681ED2
:1016E0005B4A12680CFB002081B2C322732003F016
:1016F00052FB10200090681E554A12681432502385
:1017000003FB002081B202234A465A2003F0F4FC76
:1017100010200090681E4E4A12682832502303FBA6
:10172000002081B2022352465A2003F0E5FC00213A
:10173000681E484A11544548007885422DDD012035
:101740000021102244A3CDE90032CDE90210404827
:101750000088143881B21346E0221E2010F031FABE
:10176000681E3C490D54002412E03A48005D68B1FF
:101770001020384B00901A5D354B1B88143B99B2F2
:10178000230103F58270022303F0B6FC601CC4B28F
:1017900039480078401EA042E7DA002406E02D48D0
:1017A000005D08B9781CC7B2601CC4B2324800782A
:1017B0008442F4DD3048007887420FD14FF6FF7045
:1017C000009023480088001F83B221480088153804
:1017D00081B24FF4C8721E2003F0DDFA002E7DD0D6
:1017E0001A480078864279DC4FF6FF700090701E30
:1017F000174A12684FF0500C0CFB0020113083B2D6
:10180000701E134A12680CFB002037E018000020FD
:101810005C0000201C000020240000200F0000209D
:101820000C0000200D00002003000020000007082D
:101830004525640D0A0000007800000079000000D2
:101840006100000062000000081500200100002077
:101850002C00002004000020BEAFB8E63AC9E8B171
:10186000B8CAFDD3EBCAB5BCCAC1ACBDD3CAFDB2C0
:10187000BBB7FB21000000000000002081B2C322A2
:10188000732003F088FA012000211022A1A3CDE9E2
:101890000032CDE90210701EA14A1268502303FBEA
:1018A000002081B21023FA22732010F08AF9102050
:1018B0000090701E9A4A12681432502303FB0020D5
:1018C00081B2022300225A2003F016FC102000905F
:1018D000701E934A12682832502300E007E003FB91
:1018E000002081B2022300225A2003F005FC8D481B
:1018F000007873287DD1012486E08A4810F804809E
:10190000B8F1300F48D14FF6FF700090601E844A46
:1019100012684FF0500C0CFB0020113083B2601E97
:101920007F4A12680CFB002081B2C322732003F0AF
:1019300032FA0120002110227BA3CDE90032CDE94B
:101940000210601E764A1268502303FB002081B209
:101950001023FA22732010F034F910200090601E3A
:101960006F4A12681432502303FB002081B2022315
:1019700000225A2003F0C0FB10200090601E684A2D
:1019800012682832502303FB002081B20223002278
:101990005A2003F0B1FB35E066480078012831D1C8
:1019A0004FF6FF700090601E5D4A12684FF0500CB9
:1019B0000CFB0020113083B2601E594A12680CFBE8
:1019C000002081B2C322732003F0E5F90220002138
:1019D000102259A3CDE90032CDE90210601E504A11
:1019E0001268502303FB002081B21023C32273200E
:1019F00000E00EE010F0E5F8601E51490C540020A4
:101A000050490870601CC4B24F48007884427FF788
:101A100074AF09B0BDE8F08F08B50024FEF74CFCA8
:101A200077E04A48008800F4004070B147480578E4
:101A300000203C49485546480078401C44490870FD
:101A4000FFF7F4FD0020414908803F4800784049F5
:101A50000978B1EB400F0DD13B480078012809D03F
:101A600000213C4807F008FF0020394908703A4936
:101A700008700FE03448007837490978B1EB400F1F
:101A800008D10021334807F0F7FE002030490870E4
:101A9000314908702E48007804280CD12A48007873
:101AA000012808D100212B4807F0E6FE0020284934
:101AB000087029490870FFF776FB22480078022851
:101AC00027D11C480078012823D1002417E01C48A6
:101AD000005D90B14FF6FF700090114800685022F1
:101AE00002FB0400113083B20D48006802FB0400C1
:101AF00081B2C322732003F04EF9601CC4B21248B5
:101B00000078401EA042E2DA00200A4908700D4920
:101B1000087086E744415441204552524F5200001C
:101B20002C000020081500204C494E4B20455252F5
:101B30004F5200000F0000204C494E4B204F4B00ED
:101B4000100000200E000020010000209C0000205A
:101B50000C000020400700080D000020704700BF67
:101B6000FEE700BFFEE700BFFEE700BFFEE77047ED
:101B700070477047704700000CB50020019000903E
:101B80006C48006840F480306A49086000BF6948CA
:101B9000006800F4003000900198401C019000980B
:101BA00018B90198B0F5A06FF1D16248006800F44F
:101BB000003010B10120009001E00020009000985A
:101BC000012843D15C48006840F010005A49086081
:101BD0000846006820F0030008600846006840F0EE
:101BE000020008605348406852494860084640680F
:101BF00048600846406840F4806048600846406895
:101C000020F47C1048600846406840F4E8104860C2
:101C10000846006840F08070086000BF45480068D2
:101C200000F000700028F9D04248406820F003001E
:101C3000404948600846406840F00200486000BFE4
:101C40003C48406800F00C000828F9D10CBD10B5E4
:101C5000FFF792FF10BD10B53648006840F0010054
:101C600034490860084640683449084031494860B2
:101C700008460068324908402E4908600846006856
:101C800020F4802008600846406820F4FE00486088
:101C90004FF41F008860FFF7DAFF4FF0006029491A
:101CA000086010BD10B5002100200022214B5B68A8
:101CB00003F00C0121B1042906D0082928D107E03E
:101CC000214B224C236027E01F4B204C236023E054
:101CD000184B5B6803F47010164B5B6803F480329A
:101CE000022303EB904022B9194B4343174C236066
:101CF0000DE0104B5B6803F4003323B1144B4343F6
:101D0000124C236003E0104B4343104C236003E06C
:101D10000D4B0E4C236000BF00BF064B5B68C3F346
:101D200003130C4CE15C094B1B68CB40074C236050
:101D300010BD000000100240002002400000FFF82B
:101D4000FFFFF6FE08ED00E000127A0030000020F0
:101D500000093D003400002008B50121482008F0AA
:101D60001BFE2020ADF8000010208DF8030003209A
:101D70008DF802006946094808F052FB2021074807
:101D800008F0FBFB2020ADF800006946044808F08D
:101D900047FB2021024808F0F0FB08BD000C014081
:101DA0000018014008B50121442008F0F5FD182075
:101DB000ADF8000048208DF8030069462C4808F073
:101DC0002FFB0120ADF8000028208DF803006946A4
:101DD000284808F025FB08BD10B5044614B10120C1
:101DE000254908702448007858B31021204808F08D
:101DF000AAFB50B108211E4808F0A5FB28B101211B
:101E00001C4808F0A0FB01281BD10A2007F041FE66
:101E10000020194908701021154808F094FB08B9F2
:101E2000012010BD0821124808F08DFB08B90220DE
:101E3000F7E701210F4808F086FB012815D10320A0
:101E4000EFE710210A4808F07EFB01280DD1082198
:101E5000074808F078FB012807D10121054808F060
:101E600072FB10B90120044908700020D9E7000076
:101E7000001801400008014044000020FE4908808D
:101E80007047FD49891C0880704708B5FA48801CD6
:101E900000880090BDF8000008BDF74A1080921C31
:101EA0001180704710B504462046FFF7E7FF052074
:101EB00007F0CBFDFFF7E9FF10BDF0480089EE49C0
:101EC00008807047EC49891C0880704730B501468E
:101ED00001F01F04C1F34513CA0AE50205EB4315DF
:101EE0001544A8B230BD00BF0100A0F10102D0B27C
:101EF000FAD1704700B502460B46E048808841F6AB
:101F00006311884247D1DD488079A8B9DB48008851
:101F1000401E801A82B2D9494889FFF7AFFF0020DE
:101F2000FFF7AFFF0020FFF7ACFF1012FFF7A9FF8C
:101F3000D0B2FFF7A6FF16E0D0494889FFF79EFF11
:101F40001012FFF79EFFD0B2FFF79BFFCB49098825
:101F5000491EC1F30F20FFF794FFC8490978491EB5
:101F6000C8B2FFF78EFFC5498889FFF787FF1812AF
:101F7000FFF787FFD8B2FFF784FFC0494988491EA1
:101F8000C1F30F20FFF77DFFBC498978491EC8B215
:101F9000FFF777FF3AE0B948808845F21051884250
:101FA00020D1B6494889FFF769FF1012FFF769FF92
:101FB000B2494989491C88B2FFF760FFD0B2FFF7E8
:101FC00060FFAE498889FFF759FF1812FFF759FFE4
:101FD000AA498989491C88B2FFF750FFD8B2FFF798
:101FE00050FF13E0A5494889FFF748FF1012FFF79B
:101FF00048FFD0B2FFF745FFA0498889FFF73EFFB1
:102000001812FFF73EFFD8B2FFF73BFF00BD2DE9E6
:10201000F04105460E4699480088A84203DD9748DE
:102020004088B04202DC0020BDE8F08131462846FD
:10203000FFF760FF9148808845F21051884204D133
:102040004FF43850FFF71AFF02E02E20FFF716FF7B
:10205000FFF71BFF04468948808841F663118842D8
:1020600001D12046E0E7FFF710FF0446FFF70DFF20
:102070008046E7B24FF6FF7000EA0727E012C00281
:10208000B91240EA411040EAE820CDE700B57B48AC
:10209000808845F21051884204D14FF42450FFF754
:1020A000EDFE02E02920FFF7E9FE00BD00B5734810
:1020B000808845F21051884204D14FF42050FFF738
:1020C000DDFE02E02820FFF7D9FE00BD70B5044612
:1020D0000023002669488079012805D16748808857
:1020E00041F66311884208D164488079F0B96348A9
:1020F000808841F66311884218D1082C15D2DFE898
:1021000004F00406080A0C0E101206240DE0072441
:102110000BE0042409E0052407E0012405E0002485
:1021200003E0032401E0022400BF00BF082C1CD2FE
:10213000DFE804F00406090C0F12151800BF14E0C4
:1021400043F0800311E043F040030EE043F0C0038E
:102150000BE043F0200308E043F0600305E043F0A8
:10216000A00302E043F0E00300BF00BF43488088C3
:1021700045F21051884202D14FF4585600E03626FD
:102180003E48808849F24131884205D03B488088EA
:1021900047F28971884201D143F00803194630465D
:1021A000FFF77BFE3548808841F6631188421DD0D9
:1021B00003F0200068B131480088304949888842DE
:1021C00014DA2E48058840882C4908800846458046
:1021D0000CE02A48008829494988884206DD2748BA
:1021E000058840882549088008464580234880881E
:1021F00045F21051884257D120494889FFF73EFEE9
:102200000020FFF73EFE1D494989491C88B2FFF7AF
:1022100035FE0020FFF735FE18494989891C88B230
:10222000FFF72CFE15490988491EC1F30F20FFF75F
:1022300028FE12494989C91C88B2FFF71FFE0F49C1
:102240000978491EC8B2FFF71CFE0C498889FFF7C0
:1022500015FE0020FFF715FE08498989491C88B240
:10226000FFF70CFE0020FFF70CFE04498989891C4A
:1022700088B2FFF703FE03E0FE07006C3402002083
:10228000FE494988491EC1F30F20FFF7FAFDFB49BB
:102290008989C91C88B2FFF7F1FDF8498978491E80
:1022A000C8B2FFF7EEFD2DE0F4494889FFF7E6FDDF
:1022B0000020FFF7E6FD0020FFF7E3FDEF49098866
:1022C000491EC1F30F20FFF7DCFDEC490978491ED8
:1022D000C8B2FFF7D6FDE9498889FFF7CFFD002096
:1022E000FFF7CFFD0020FFF7CCFDE4494988491EE8
:1022F000C1F30F20FFF7C5FDE0498978491EC8B238
:10230000FFF7BFFD70BD30B504460D462946204697
:10231000FFF7F0FDFFF7D1FDD9480088D9490880C3
:1023200030BD10B503460C46D448808845F21051A4
:10233000884220D1D1494889FFF7A0FD1812FFF744
:10234000A0FDCE494989491C88B2FFF797FDD8B254
:10235000FFF797FDC9498889FFF790FD2012FFF725
:1023600090FDC6498989491C88B2FFF787FDE0B214
:10237000FFF787FD42E0C148808841F6631188423B
:1023800028D1BE48807920B9BC480088401EC01AB8
:1023900083B2BA494889FFF771FD1812FFF771FD42
:1023A000D8B2FFF76EFD1812FFF76BFDD8B2FFF73A
:1023B00068FDB2498889FFF761FD2012FFF761FDD2
:1023C000E0B2FFF75EFD2012FFF75BFDE0B2FFF722
:1023D00058FD13E0A9494889FFF750FD1812FFF78F
:1023E00050FDD8B2FFF74DFDA4498889FFF746FD9F
:1023F0002012FFF746FDE0B2FFF743FD9F4800893A
:10240000A049891E0880881C028010BD2DE9F04774
:102410000446BE20FFF732FD0520FFF732FD2046BF
:1024200011F068FD07464FF06632974B11F0B2FD90
:10243000054611F01BFD1FFA80F94846FFF721FD04
:102440000120FFF71EFDFF20FFF71BFD0020FFF717
:1024500018FD0020FFF715FDBDE8F08710B5044614
:1024600086488471002C45D1F020844908804FF4BF
:10247000A07048800846808845F21051884210D1EB
:102480004FF430507D4908814FF4285048814FF473
:102490002C5088814FF4F07008804FF448704880C9
:1024A0001AE07648808841F6631188420DD12C20CD
:1024B000724908812B2048812A2088814FF4F070CE
:1024C00008804FF44870488006E02C206B49088152
:1024D0002A2048812B2088816848808845F2103165
:1024E00088424CD14FF4A070644908804FF4F070DA
:1024F000488044E04FF4A07060490880F020488094
:102500000846808845F21051884210D14FF430506F
:102510005A4908814FF4285048814FF42C50888143
:102520004FF4487008804FF4F07048801AE0534828
:10253000808841F6631188420DD12C204F490881D3
:102540002A2048812B2088814FF4487008804FF45E
:10255000F070488006E02C20484908812A204881F4
:102560002B2088814548808845F21031884206D169
:102570004FF4F070414908804FF4A070488000206B
:10258000FFF7A4FD10BDF0B504460D46A018401E8F
:1025900086B2E818401E87B23848808841F6631139
:1025A000884231D13548807901282DD033480088C0
:1025B000801A001B84B2E818401E83B22F49488954
:1025C000FFF75CFC2012FFF75CFCE0B2FFF759FC60
:1025D000A118491EC1F30F20FFF753FCA118491E93
:1025E000C8B2FFF74EFC25498889FFF747FC28123F
:1025F000FFF747FCE8B2FFF744FC1812FFF741FC75
:10260000D8B2FFF73EFC73E01C48808845F21051B9
:1026100088424DD119494889FFF730FC2012FFF755
:1026200030FC16494989491C88B2FFF727FCE0B203
:10263000FFF727FC11494989891C88B2FFF71EFC66
:102640003012FFF71EFC0D494989C91C88B2FFF7FB
:1026500015FCF0B2FFF715FC08498889FFF70EFC5E
:102660002812FFF70EFC05498989491C88B2FFF73B
:1026700005FCE8B2FFF705FC004907E03402002042
:10268000460000200008006C666604408989891CA9
:1026900088B2FFF7F3FB3812FFF7F3FBFE49898995
:1026A000C91C88B2FFF7EAFBF8B2FFF7EAFB1FE0AC
:1026B000F9494889FFF7E2FB2012FFF7E2FBE0B29D
:1026C000FFF7DFFB3012FFF7DCFBF0B2FFF7D9FBBF
:1026D000F1498889FFF7D2FB2812FFF7D2FBE8B255
:1026E000FFF7CFFB3812FFF7CCFBF8B2FFF7C9FBBF
:1026F000F0BD70B504460026E7480588408845438C
:1027000000210846FFF7F6FBFFF7D7FB00BF02E00A
:10271000E2480480761CAE42FAD370BD00B59FB08B
:102720000121080208F02BF901214FF4B47008F0E0
:1027300033F90120ADF8780010208DF87B000320DC
:102740008DF87A001EA9D64807F06AFE4CF2337065
:10275000ADF8780018208DF87B0003208DF87A0002
:102760001EA9D04807F05CFE4FF68070ADF87800E7
:1027700018208DF87B0003208DF87A001EA9CA4826
:1027800007F04EFE41F20100ADF8780018208DF8F8
:102790007B0003208DF87A001EA9C44807F040FE94
:1027A00001200890002009900F200A9000200B9033
:1027B0000C900D900E900190029003200390002049
:1027C000049005900690079006200F90002010902E
:1027D00011901020129000201390159014901690D4
:1027E00017904FF480501890002019904FF48040BB
:1027F0001A9000201B9008A81C9001A81D900FA8FB
:1028000007F0F4FA0121062007F058FC322007F007
:1028100040F9D320FFF732FBFFF737FB9E49888052
:10282000FFF733FB9C498880FFF72FFB9A4988808C
:10283000084680884FF6FF7101EA0020964988809B
:10284000FFF723FB94498988084393498880084609
:10285000808849F2413188427DD00420FFF70EFB89
:10286000FFF713FB8C498880FFF70FFB8A498880AC
:10287000FFF70BFB88498880084680884FF6FF7178
:1028800001EA002084498880FFF7FFFA824989889D
:102890000843814988800846808848F2525188421E
:1028A00003D147F289707C4988807B48808847F251
:1028B00089718842D0D0D420FFF7E0FAFFF7E5FA1B
:1028C00075498880FFF7E1FA73498880FFF7DDFAE0
:1028D00071498880084680884FF6FF7101EA002020
:1028E0006D498880FFF7D1FA6B49898808436A49A6
:1028F00088800846808845F21031884262D0552190
:102900004FF47040FFF7C9FAAA214FF20100FFF718
:10291000C4FA52214FF20200FFF7BFFA08214FF22A
:102920000300FFF7BAFA01214FF20400FFF7B5FAEE
:102930004FF44540FFF7A2FAFFF7A7FA56498880FF
:10294000084680884FF6FF7101EA002052498880CE
:102950004CF2015000E035E0FFF790FAFFF795FAEE
:102960004D49898808434C498880052007F091F833
:102970004948808845F21051884223D0A120FFF7B2
:102980007DFAFFF782FA44498880FFF77EFA4249D0
:102990008880084680884FF6FF7101EA00203E4992
:1029A0008880FFF772FA3C49898808433A49888051
:1029B0000846808845F26171884203D141F6631070
:1029C000354988803448818839A00FF0BFFA3248F1
:1029D000808849F24131884272D1CF20FFF74EFA08
:1029E0000020FFF74EFAC120FFF74BFA3020FFF727
:1029F00048FAED20FFF742FA6420FFF742FA03207D
:102A0000FFF73FFA1220FFF73CFA8120FFF739FA6F
:102A1000E820FFF733FA8520FFF733FA1020FFF79D
:102A200030FA7A20FFF72DFACB20FFF727FA39206A
:102A3000FFF727FA2C20FFF724FA0020FFF721FAEE
:102A40003420FFF71EFA0220FFF71BFAF720FFF7EA
:102A500015FA2020FFF715FAEA20FFF70FFA0020F9
:102A6000FFF70FFA0020FFF70CFAC020FFF706FA75
:102A70001B20FFF706FAC120FFF700FA0120FFF73D
:102A800000FAC520FFF7FAF93020FFF7FAF93020F5
:102A9000FFF7F7F9C72014E0340200200008006CAB
:102AA000000C0140001401400018014000200140CA
:102AB000204C43442049443A25780D0A0000000088
:102AC000B7E0FFF7DBF9B720FFF7DBF93620FFF7B8
:102AD000D5F94820FFF7D5F93A20FFF7CFF955206F
:102AE000FFF7CFF9B120FFF7C9F90020FFF7C9F9C7
:102AF0001A20FFF7C6F9B620FFF7C0F90A20FFF742
:102B0000C0F9A220FFF7BDF9F220FFF7B7F90020C6
:102B1000FFF7B7F92620FFF7B1F90120FFF7B1F968
:102B2000E020FFF7ABF90F20FFF7ABF92A20FFF702
:102B3000A8F92820FFF7A5F90820FFF7A2F90E2031
:102B4000FFF79FF90820FFF79CF95420FFF799F948
:102B5000A920FFF796F94320FFF793F90A20FFF722
:102B600090F90F20FFF78DF90020FFF78AF9002078
:102B7000FFF787F90020FFF784F90020FFF781F9BC
:102B8000E120FFF77BF90020FFF77BF91520FFF725
:102B900078F91720FFF775F90720FFF772F9112070
:102BA000FFF76FF90620FFF76CF92B20FFF769F9A3
:102BB0005620FFF766F93C20FFF763F90520FFF781
:102BC00060F91020FFF75DF90F20FFF75AF93F2059
:102BD000FFF757F93F20FFF754F90F20FFF751F99E
:102BE0002B20FFF74BF90020FFF74BF90020FFF7F0
:102BF00048F90120FFF745F93F20FFF742F92A2065
:102C0000FFF73CF90020FFF73CF90020FFF739F906
:102C10000020FFF736F9EF20FFF733F91120FFF717
:102C20002DF9782006F035FF2920FFF727F902F06B
:102C3000A6B8FE48808847F2897188427ED111206B
:102C4000FFF71CF9782006F024FF3620FFF716F96D
:102C50000020FFF716F93A20FFF710F90520FFF7DB
:102C600010F9B220FFF70AF90C20FFF70AF90C203F
:102C7000FFF707F90020FFF704F93320FFF701F908
:102C80003320FFF7FEF8B720FFF7F8F83520FFF7FD
:102C9000F8F8BB20FFF7F2F83220FFF7F2F8C02077
:102CA000FFF7ECF80C20FFF7ECF8C220FFF7E6F88E
:102CB0000120FFF7E6F8C320FFF7E0F81020FFF748
:102CC000E0F8C420FFF7DAF82020FFF7DAF8C62092
:102CD000FFF7D4F80F20FFF7D4F8D020FFF7CEF895
:102CE000A420FFF7CEF8A120FFF7CBF8E020FFF7F4
:102CF000C5F8D020FFF7C5F80020FFF7C2F8022082
:102D0000FFF7BFF80720FFF7BCF80A20FFF7B9F874
:102D10002820FFF7B6F83220FFF7B3F84420FFF77A
:102D2000B0F84220FFF7ADF80620FFF7AAF80E2012
:102D3000FFF7A7F81220FFF7A4F800E054E01420F2
:102D4000FFF79FF81720FFF79CF8E120FFF796F8B0
:102D5000D020FFF796F80020FFF793F80220FFF746
:102D600090F80720FFF78DF80A20FFF78AF828204F
:102D7000FFF787F83120FFF784F85420FFF781F838
:102D80004720FFF77EF80E20FFF77BF81C20FFF7A7
:102D900078F81720FFF775F81B20FFF772F81E2050
:102DA000FFF76FF82A20FFF769F80020FFF769F8AE
:102DB0000020FFF766F80020FFF763F8EF20FFF729
:102DC00060F82B20FFF75AF80020FFF75AF8002090
:102DD000FFF757F80120FFF754F83F20FFF751F8AD
:102DE0002920FFF74BF822E79048808845F2103100
:102DF000884240F07C87ED20FFF740F80120FFF784
:102E000040F8FE20FFF73DF8EE20FFF737F8DE2010
:102E1000FFF737F82120FFF734F8F120FFF72EF8FD
:102E20000120FFF72EF8DF20FFF728F81020FFF72A
:102E300028F8C420FFF722F88F20FFF722F8C620D9
:102E4000FFF71CF80020FFF71CF8E220FFF719F845
:102E5000E220FFF716F8E220FFF713F8BF20FFF794
:102E60000DF8AA20FFF70DF8B020FFF707F80D20A6
:102E7000FFF707F80020FFF704F80D20FFF701F82F
:102E80000020FEF7FEFF1120FEF7FBFF0020FEF7FB
:102E9000F8FF1920FEF7F5FF0020FEF7F2FF2120D2
:102EA000FEF7EFFF0020FEF7ECFF2D20FEF7E9FF15
:102EB0000020FEF7E6FF3D20FEF7E3FF0020FEF7CF
:102EC000E0FF5D20FEF7DDFF0020FEF7DAFF5D206A
:102ED000FEF7D7FF0020FEF7D4FFB120FEF7CEFFAC
:102EE0008020FEF7CEFF0020FEF7CBFF8B20FEF701
:102EF000C8FF0020FEF7C5FF9620FEF7C2FF0020A6
:102F0000FEF7BFFFB220FEF7B9FF0020FEF7B9FFC2
:102F10000020FEF7B6FF0220FEF7B3FF0020FEF709
:102F2000B0FF0320FEF7ADFF0020FEF7AAFFB3209D
:102F3000FEF7A4FF0020FEF7A4FF0020FEF7A1FF8C
:102F40000020FEF79EFF0020FEF79BFF0020FEF70B
:102F500098FF0020FEF795FF0020FEF792FF00206B
:102F6000FEF78FFF0020FEF78CFF0020FEF789FFA1
:102F70000020FEF786FF0020FEF783FF0020FEF70B
:102F800080FF0020FEF77DFF0020FEF77AFF002083
:102F9000FEF777FF0020FEF774FF0020FEF771FFB9
:102FA0000020FEF76EFF0020FEF76BFF0020FEF70B
:102FB00068FF0020FEF765FF0020FEF762FF00209B
:102FC000FEF75FFFB420FEF759FF8B20FEF759FF95
:102FD0000020FEF756FF9620FEF753FF0020FEF775
:102FE00050FFA120FEF74DFF0020FEF74AFFB5205D
:102FF000FEF744FF0220FEF744FF0020FEF741FFEA
:103000000320FEF73EFF0020FEF73BFF0420FEF703
:1030100038FF0020FEF735FFB620FEF72FFF002017
:10302000FEF72FFF0020FEF72CFF01E03402002006
:10303000B720FEF723FF0020FEF723FF0020FEF756
:1030400020FF3F20FEF71DFF0020FEF71AFF5E2045
:10305000FEF717FF0020FEF714FF6420FEF711FFB4
:103060000020FEF70EFF8C20FEF70BFF0020FEF77E
:1030700008FFAC20FEF705FF0020FEF702FFDC2072
:10308000FEF7FFFE0020FEF7FCFE7020FEF7F9FEC3
:103090000020FEF7F6FE9020FEF7F3FE0020FEF77C
:1030A000F0FEEB20FEF7EDFE0020FEF7EAFEDC204E
:1030B000FEF7E7FE0020FEF7E4FEB820FEF7DEFE96
:1030C0000020FEF7DEFE0020FEF7DBFE0020FEF70C
:1030D000D8FE0020FEF7D5FE0020FEF7D2FE00202D
:1030E000FEF7CFFE0020FEF7CCFE0020FEF7C9FE63
:1030F000BA20FEF7C3FE2420FEF7C3FE0020FEF731
:10310000C0FE0020FEF7BDFE0020FEF7BAFEC12083
:10311000FEF7B4FE2020FEF7B4FE0020FEF7B1FE5D
:103120005420FEF7AEFE0020FEF7ABFEFF20FEF7B8
:10313000A8FE0020FEF7A5FEC220FEF79FFE0A2093
:10314000FEF79FFE0020FEF79CFE0420FEF799FE8E
:103150000020FEF796FEC320FEF790FE3C20FEF70F
:1031600090FE0020FEF78DFE3A20FEF78AFE00203A
:10317000FEF787FE3920FEF784FE0020FEF781FE71
:103180003720FEF77EFE0020FEF77BFE3C20FEF798
:1031900078FE0020FEF775FE3620FEF772FE002056
:1031A000FEF76FFE3220FEF76CFE0020FEF769FE90
:1031B0002F20FEF766FE0020FEF763FE2C20FEF7B0
:1031C00060FE0020FEF75DFE2920FEF75AFE00207B
:1031D000FEF757FE2620FEF754FE0020FEF751FEB4
:1031E0002420FEF74EFE0020FEF74BFE2420FEF7C3
:1031F00048FE0020FEF745FE2320FEF742FE002099
:10320000FEF73FFE3C20FEF73CFE0020FEF739FEB5
:103210003620FEF736FE0020FEF733FE3220FEF7A2
:1032200030FE0020FEF72DFE2F20FEF72AFE0020A4
:10323000FEF727FE2C20FEF724FE0020FEF721FEDD
:103240002920FEF71EFE0020FEF71BFE2620FEF7BB
:1032500018FE0020FEF715FE2420FEF712FE0020C7
:10326000FEF70FFE2420FEF70CFE0020FEF709FEFD
:103270002320FEF706FE0020FEF703FEC420FEF723
:10328000FDFD6220FEF7FDFD0020FEF7FAFD0520A2
:10329000FEF7F7FD0020FEF7F4FD8420FEF7F1FDB8
:1032A0000020FEF7EEFDF020FEF7EBFD0020FEF71C
:1032B000E8FD1820FEF7E5FD0020FEF7E2FDA42062
:1032C000FEF7DFFD0020FEF7DCFD1820FEF7D9FD3C
:1032D0000020FEF7D6FD5020FEF7D3FD0020FEF7BC
:1032E000D0FD0C20FEF7CDFD0020FEF7CAFD172013
:1032F000FEF7C7FD0020FEF7C4FD9520FEF7C1FDD7
:103300000020FEF7BEFDF320FEF7BBFD0020FEF718
:10331000B8FDE620FEF7B5FD0020FEF7B2FDC520A2
:10332000FEF7ACFD3220FEF7ACFD0020FEF7A9FD54
:103330004420FEF7A6FD0020FEF7A3FD6520FEF762
:10334000A0FD0020FEF79DFD7620FEF79AFD0020EF
:10335000FEF797FD8820FEF794FD0020FEF791FD13
:10336000C620FEF78BFD2020FEF78BFD0020FEF728
:1033700088FD1720FEF785FD0020FEF782FD012065
:10338000FEF77FFD0020FEF77CFDC720FEF776FDEF
:103390000020FEF776FD0020FEF773FD0020FEF70B
:1033A00070FD0020FEF76DFDC820FEF767FD0020D0
:1033B000FEF767FD0020FEF764FD0020FEF761FDCB
:1033C0000020FEF75EFDC920FEF758FD0020FEF745
:1033D00058FD0020FEF755FD0020FEF752FD0020AD
:1033E000FEF74FFD0020FEF74CFD0020FEF749FDE3
:1033F0000020FEF746FD0020FEF743FD0020FEF70B
:1034000040FD0020FEF73DFD0020FEF73AFD0020C4
:10341000FEF737FD0020FEF734FD0020FEF731FDFA
:103420000020FEF72EFD0020FEF72BFDE020FEF72A
:1034300025FD1620FEF725FD0020FEF722FD1C20AD
:10344000FEF71FFD0020FEF71CFD2120FEF719FDF1
:103450000020FEF716FD3620FEF713FD0020FEF7D4
:1034600010FD4620FEF70DFD0020FEF70AFD52205C
:10347000FEF707FD0020FEF704FD6420FEF701FDC6
:103480000020FEF7FEFC7A20FEF7FBFC0020FEF792
:10349000F8FC8B20FEF7F5FC0020FEF7F2FC9920EB
:1034A000FEF7EFFC0020FEF7ECFCA820FEF7E9FC9D
:1034B0000020FEF7E6FCB920FEF7E3FC0020FEF753
:1034C000E0FCC420FEF7DDFC0020FEF7DAFCCA2099
:1034D000FEF7D7FC0020FEF7D4FCD220FEF7D1FC8B
:1034E0000020FEF7CEFCD920FEF7CBFC0020FEF733
:1034F000C8FCE020FEF7C5FC0020FEF7C2FCF3206C
:10350000FEF7BFFC0020FEF7BCFCE120FEF7B6FC96
:103510001620FEF7B6FC0020FEF7B3FC1C20FEF7D9
:10352000B0FC0020FEF7ADFC2220FEF7AAFC002034
:10353000FEF7A7FC3620FEF7A4FC0020FEF7A1FC56
:103540004520FEF79EFC0020FEF79BFC5220FEF774
:1035500098FC0020FEF795FC6420FEF792FC00200A
:10356000FEF78FFC7A20FEF78CFC0020FEF789FC2A
:103570008B20FEF786FC0020FEF783FC9920FEF7E7
:1035800080FC0020FEF77DFCA820FEF77AFC0020DE
:10359000FEF777FCB920FEF774FC0020FEF771FC03
:1035A000C420FEF76EFC0020FEF76BFCCA20FEF77D
:1035B00068FC0020FEF765FCD220FEF762FC0020CC
:1035C000FEF75FFCD820FEF75CFC0020FEF759FCFC
:1035D000E020FEF756FC0020FEF753FCF320FEF738
:1035E00050FC0020FEF74DFCE220FEF747FC0520D2
:1035F000FEF747FC0020FEF744FC0B20FEF741FCE1
:103600000020FEF73EFC1B20FEF73BFC0020FEF7EF
:1036100038FC3420FEF735FC0020FEF732FC442055
:10362000FEF72FFC0020FEF72CFC4F20FEF729FCB4
:103630000020FEF726FC6120FEF723FC0020FEF7A9
:1036400020FC7920FEF71DFC0020FEF71AFC8820E4
:10365000FEF717FC0020FEF714FC9720FEF711FC84
:103660000020FEF70EFCA620FEF70BFC0020FEF764
:1036700008FCB720FEF705FC0020FEF702FCC22084
:10368000FEF7FFFB0020FEF7FCFBC720FEF7F9FB6F
:103690000020FEF7F6FBD120FEF7F3FB0020FEF73B
:1036A000F0FBD620FEF7EDFB0020FEF7EAFBDD2065
:1036B000FEF7E7FB0020FEF7E4FBF320FEF7E1FB5B
:1036C0000020FEF7DEFBE320FEF7D8FB0520FEF727
:1036D000D8FB0020FEF7D5FB0A20FEF7D2FB002026
:1036E000FEF7CFFB1C20FEF7CCFB0020FEF7C9FB4A
:1036F0003320FEF7C6FB0020FEF7C3FB4420FEF795
:10370000C0FB0020FEF7BDFB5020FEF7BAFB0020F7
:10371000FEF7B7FB6220FEF7B4FB0020FEF7B1FB1B
:103720007820FEF7AEFB0020FEF7ABFB8820FEF70B
:10373000A8FB0020FEF7A5FB9720FEF7A2FB0020C8
:10374000FEF79FFBA620FEF79CFB0020FEF799FBEF
:10375000B720FEF796FB0020FEF793FBC220FEF792
:1037600090FB0020FEF78DFBC720FEF78AFB0020B0
:10377000FEF787FBD120FEF784FB0020FEF781FBDC
:10378000D520FEF77EFB0020FEF77BFBDD20FEF759
:1037900078FB0020FEF775FBF320FEF772FB00209C
:1037A000FEF76FFBE420FEF769FB0120FEF769FBE3
:1037B0000020FEF766FB0120FEF763FB0020FEF70A
:1037C00060FB0220FEF75DFB0020FEF75AFB2A207B
:1037D000FEF757FB0020FEF754FB3C20FEF751FBA1
:1037E0000020FEF74EFB4B20FEF74BFB0020FEF7C0
:1037F00048FB5D20FEF745FB0020FEF742FB7420EE
:10380000FEF73FFB0020FEF73CFB8420FEF739FB70
:103810000020FEF736FB9320FEF733FB0020FEF777
:1038200030FBA220FEF72DFB0020FEF72AFBB32081
:10383000FEF727FB0020FEF724FBBE20FEF721FB4E
:103840000020FEF71EFBC420FEF71BFB0020FEF746
:1038500018FBCD20FEF715FB0020FEF712FBD3204E
:10386000FEF70FFB0020FEF70CFBDD20FEF709FB47
:103870000020FEF706FBF320FEF703FB0020FEF717
:1038800000FBE520FEF7FAFA0020FEF7FAFA002026
:10389000FEF7F7FA0020FEF7F4FA0020FEF7F1FA3F
:1038A0000220FEF7EEFA0020FEF7EBFA2920FEF7E1
:1038B000E8FA0020FEF7E5FA3C20FEF7E2FA0020E5
:1038C000FEF7DFFA4B20FEF7DCFA0020FEF7D9FA0C
:1038D0005D20FEF7D6FA0020FEF7D3FA7420FEF73B
:1038E000D0FA0020FEF7CDFA8420FEF7CAFA0020B5
:1038F000FEF7C7FA9320FEF7C4FA0020FEF7C1FADC
:10390000A220FEF7BEFA0020FEF7BBFAB320FEF7B6
:10391000B8FA0020FEF7B5FABE20FEF7B2FA002092
:10392000FEF7AFFAC420FEF7ACFA0020FEF7A9FAC2
:10393000CD20FEF7A6FA0020FEF7A3FAD320FEF76B
:10394000A0FA0020FEF79DFADC20FEF79AFA00208C
:10395000FEF797FAF320FEF794FA0020FEF791FAAB
:10396000E620FEF78BFA1120FEF78BFA0020FEF717
:1039700088FA3420FEF785FA0020FEF782FA5620F6
:10398000FEF77FFA0020FEF77CFA7620FEF779FA40
:103990000020FEF776FA7720FEF773FA0020FEF794
:1039A00070FA6620FEF76DFA0020FEF76AFA8820AA
:1039B000FEF767FA0020FEF764FA9920FEF761FA35
:1039C0000020FEF75EFABB20FEF75BFA0020FEF750
:1039D00058FA9920FEF755FA0020FEF752FA6620B1
:1039E000FEF74FFA0020FEF74CFA5520FEF749FA91
:1039F0000020FEF746FA5520FEF743FA0020FEF7B6
:103A000040FA4520FEF73DFA0020FEF73AFA43203F
:103A1000FEF737FA0020FEF734FA4420FEF731FAB9
:103A20000020FEF72EFAE720FEF728FA3220FEF7F4
:103A300028FA0020FEF725FA5520FEF722FA00208A
:103A4000FEF71FFA7620FEF71CFA0020FEF719FA9F
:103A50006620FEF716FA0020FEF713FA6720FEF73D
:103A600010FA0020FEF70DFA6720FEF70AFA002090
:103A7000FEF707FA8720FEF704FA0020FEF701FAA6
:103A80009920FEF7FEF90020FEF7FBF9BB20FEF7B8
:103A9000F8F90020FEF7F5F99920FEF7F2F9002079
:103AA000FEF7EFF97720FEF7ECF90020FEF7E9F9D1
:103AB0004420FEF7E6F90020FEF7E3F95620FEF772
:103AC000E0F90020FEF7DDF92320FEF7DAF9002007
:103AD000FEF7D7F93320FEF7D4F90020FEF7D1F92D
:103AE0004520FEF7CEF90020FEF7CBF9E820FEF7DF
:103AF000C5F90020FEF7C5F90020FEF7C2F99920AC
:103B0000FEF7BFF90020FEF7BCF98720FEF7B9F9F0
:103B10000020FEF7B6F98820FEF7B3F90020FEF783
:103B2000B0F97720FEF7ADF90020FEF7AAF966207C
:103B3000FEF7A7F90020FEF7A4F98820FEF7A1F907
:103B40000020FEF79EF9AA20FEF79BF90020FEF761
:103B500098F9BB20FEF795F90020FEF792F999201D
:103B6000FEF78FF90020FEF78CF96620FEF789F941
:103B70000020FEF786F95520FEF783F90020FEF7B6
:103B800080F95520FEF77DF90020FEF77AF94420F0
:103B9000FEF777F90020FEF774F94420FEF771F97B
:103BA0000020FEF76EF95520FEF76BF90020FEF7B6
:103BB00068F9E920FEF762F9AA20FEF762F9002011
:103BC000FEF75FF90020FEF75CF90020FEF759F9D7
:103BD0000020FEF753F9AA20FEF753F9CF20FEF795
:103BE0004DF90020FEF74DF90020FEF74AF90020BC
:103BF000FEF747F90020FEF744F90020FEF741F9EF
:103C00000020FEF73EF90020FEF73BF90020FEF70A
:103C100038F90020FEF735F90020FEF732F90020D0
:103C2000FEF72FF90020FEF72CF90020FEF729F906
:103C30000020FEF726F90020FEF723F90020FEF70A
:103C400020F90020FEF71DF9F020FEF717F90020FB
:103C5000FEF717F95020FEF714F90020FEF711F9CE
:103C60000020FEF70EF90020FEF70BF9F320FEF717
:103C700005F90020FEF705F9F920FEF7FFF8062008
:103C8000FEF7FFF81020FEF7FCF82920FEF7F9F800
:103C90000020FEF7F6F83A20FEF7F0F85520FEF780
:103CA000F0F81120FEF7EAF8642005F0F2FE292072
:103CB000FEF7E4F83520FEF7E1F80020FEF7E1F822
:103CC0005120FEF7DBF8FF20FEF7DBF85320FEF76C
:103CD000D5F82C20FEF7D5F85520FEF7CFF8822036
:103CE000FEF7CFF82C20FEF7C9F801F048B8FE48DF
:103CF000808845F2105188427ED155214FF47040A2
:103D0000FEF7CBF8AA214FF20100FEF7C6F85221C8
:103D10004FF20200FEF7C1F808214FF20300FEF750
:103D2000BCF801214FF20400FEF7B7F80D214FF463
:103D30003040FEF7B2F80D214BF20100FEF7ADF86E
:103D40000D214BF20200FEF7A8F834214FF4364063
:103D5000FEF7A3F834214BF20160FEF79EF8342100
:103D60004BF20260FEF799F80D214FF43140FEF757
:103D700094F80D214BF20110FEF78FF80D214BF254
:103D80000210FEF78AF834214FF43740FEF785F829
:103D900034214BF20170FEF780F834214BF20270AF
:103DA000FEF77BF800214FF43240FEF776F8002151
:103DB0004BF20120FEF771F800214BF20220FEF7D2
:103DC0006CF824214FF43840FEF767F824214BF6B5
:103DD0000100FEF762F824214BF60200FEF75DF8C1
:103DE00001214FF43F40FEF758F80F214FF43340C4
:103DF000FEF753F80F2100E0FEE34BF20130FEF72F
:103E00004CF80F214BF20230FEF747F834214FF403
:103E10003940FEF742F834214BF60110FEF73DF829
:103E200034214BF60210FEF738F808214FF43540E4
:103E3000FEF733F808214BF20150FEF72EF8082167
:103E40004BF20250FEF729F803214FF44240FEF7EF
:103E500024F824214FF43A40FEF71FF824214BF6B2
:103E60000120FEF71AF824214BF60220FEF715F880
:103E700000214FF43C40FEF710F878214BF601404A
:103E8000FEF70BF800214BF60240FEF706F8002182
:103E90004FF43D40FEF701F878214BF60150FDF755
:103EA000FCFF00214BF60250FDF7F7FF00214FF415
:103EB0003E40FDF7F2FF64214BF60160FDF7EDFF98
:103EC00000214FF45140FDF7E8FF33214DF201107E
:103ED000FDF7E3FF00214DF20210FDF7DEFF342174
:103EE0004DF20310FDF7D9FF00214DF20410FDF74C
:103EF000D4FF3A214DF20510FDF7CFFF00214DF21E
:103F00000610FDF7CAFF4A214DF20710FDF7C5FF65
:103F100000214DF20810FDF7C0FF5C214DF20910A1
:103F2000FDF7BBFF00214DF20A10FDF7B6FF81211E
:103F30004DF20B10FDF7B1FF00214DF20C10FDF713
:103F4000ACFFA6214DF20D10FDF7A7FF00214DF2A9
:103F50000E10FDF7A2FFE5214DF20F10FDF79DFFBA
:103F600001214DF21010FDF798FF13214DF21110B1
:103F7000FDF793FF01214DF21210FDF78EFF542142
:103F80004DF21310FDF789FF01214DF21410FDF7DA
:103F900084FF82214DF21510FDF77FFF01214DF2C4
:103FA0001610FDF77AFFCA214DF21710FDF775FFC5
:103FB00002214DF21810FDF770FF00214DF219108B
:103FC000FDF76BFF02214DF21A10FDF766FF01218C
:103FD0004DF21B10FDF761FF02214DF21C10FDF7A1
:103FE0005CFF34214DF21D10FDF757FF02214DF209
:103FF0001E10FDF752FF67214DF21F10FDF74DFF18
:1040000002214DF22010FDF748FF84214DF22110CE
:10401000FDF743FF02214DF22210FDF73EFFA421E0
:104020004DF22310FDF739FF02214DF22410FDF768
:1040300034FFB7214DF22510FDF72FFF02214DF27D
:104040002610FDF72AFFCF214DF22710FDF725FF9F
:1040500002214DF22810FDF720FFDE214DF229103C
:10406000FDF71BFF02214DF22A10FDF716FFF2218A
:104070004DF22B10FDF711FF02214DF22C10FDF730
:104080000CFFFE214DF22D10FDF707FF03214DF22D
:104090002E10FDF702FF10214DF22F10FDF7FDFE4F
:1040A00003214DF23010FDF7F8FE33214DF23110AF
:1040B000FDF7F3FE03214DF23210FDF7EEFE6D2108
:1040C0004DF23310FDF7E9FE00214FF45240FDF7A9
:1040D000E4FE33214DF20120FDF7DFFE00214DF219
:1040E0000220FDF7DAFE01E03402002034214DF217
:1040F0000320FDF7D2FE00214DF20420FDF7CDFE96
:104100003A214DF20520FDF7C8FE00214DF20620B0
:10411000FDF7C3FE4A214DF20720FDF7BEFE002148
:104120004DF20820FDF7B9FE5C214DF20920FDF7A4
:10413000B4FE00214DF20A20FDF7AFFE81214DF2C1
:104140000B20FDF7AAFE00214DF20C20FDF7A5FE85
:10415000A6214DF20D20FDF7A0FE00214DF20E200C
:10416000FDF79BFEE5214DF20F20FDF796FE0121A4
:104170004DF21020FDF791FE13214DF21120FDF7B5
:104180008CFE01214DF21220FDF787FE54214DF2E5
:104190001320FDF782FE01214DF21420FDF77DFE74
:1041A00082214DF21520FDF778FE01214DF21620F7
:1041B000FDF773FECA214DF21720FDF76EFE0221B6
:1041C0004DF21820FDF769FE00214DF21920FDF790
:1041D00064FE02214DF21A20FDF75FFE01214DF22F
:1041E0001B20FDF75AFE02214DF21C20FDF755FE63
:1041F00034214DF21D20FDF750FE02214DF21E200C
:10420000FDF74BFE67214DF21F20FDF746FE022110
:104210004DF22020FDF741FE84214DF22120FDF7D3
:104220003CFE02214DF22220FDF737FEA4214DF283
:104230002320FDF732FE02214DF22420FDF72DFE52
:10424000B7214DF22520FDF728FE02214DF2262050
:10425000FDF723FECF214DF22720FDF71EFE0221A0
:104260004DF22820FDF719FEDE214DF22920FDF741
:1042700014FE02214DF22A20FDF70FFEF2214DF22D
:104280002B20FDF70AFE02214DF22C20FDF705FE42
:10429000FE214DF22D20FDF700FE03214DF22E20D0
:1042A000FDF7FBFD10214DF22F20FDF7F6FD032158
:1042B0004DF23020FDF7F1FD33214DF23120FDF7B5
:1042C000ECFD03214DF23220FDF7E7FD6D214DF2AB
:1042D0003320FDF7E2FD00214FF45340FDF7DDFDF3
:1042E00033214DF20130FDF7D8FD00214DF20230AF
:1042F000FDF7D3FD34214DF20330FDF7CEFD002153
:104300004DF20430FDF7C9FD3A214DF20530FDF7BD
:10431000C4FD00214DF20630FDF7BFFD4A214DF2EC
:104320000730FDF7BAFD00214DF20830FDF7B5FD6D
:104330005C214DF20930FDF7B0FD00214DF20A304D
:10434000FDF7ABFD81214DF20B30FDF7A6FD0021FD
:104350004DF20C30FDF7A1FDA6214DF20D30FDF719
:104360009CFD00214DF20E30FDF797FDE5214DF249
:104370000F30FDF792FD01214DF21030FDF78DFD5C
:1043800013214DF21130FDF788FD01214DF212305D
:10439000FDF783FD54214DF21330FDF77EFD012121
:1043A0004DF21430FDF779FD82214DF21530FDF705
:1043B00074FD01214DF21630FDF76FFDCA214DF25B
:1043C0001730FDF76AFD02214DF21830FDF765FD4B
:1043D00000214DF21930FDF760FD02214DF21A3037
:1043E000FDF75BFD01214DF21B30FDF756FD02216B
:1043F0004DF21C30FDF751FD34214DF21D30FDF71B
:104400004CFD02214DF21E30FDF747FD67214DF2B4
:104410001F30FDF742FD02214DF22030FDF73DFD3A
:1044200084214DF22130FDF738FD02214DF222307A
:10443000FDF733FDA4214DF22330FDF72EFD0221BF
:104440004DF22430FDF729FDB7214DF22530FDF75F
:1044500024FD02214DF22630FDF71FFDCF214DF244
:104460002730FDF71AFD02214DF22830FDF715FD2A
:10447000DE214DF22930FDF710FD02214DF22A30E8
:10448000FDF70BFDF2214DF22B30FDF706FD022169
:104490004DF22C30FDF701FDFE214DF22D30FDF7E0
:1044A000FCFC03214DF22E30FDF7F7FC10214DF2FC
:1044B0002F30FDF7F2FC03214DF23030FDF7EDFC1B
:1044C00033214DF23130FDF7E8FC03214DF232305B
:1044D000FDF7E3FC6D214DF23330FDF7DEFC0021EA
:1044E0004FF45440FDF7D9FC33214DF20140FDF764
:1044F000D4FC00214DF20240FDF7CFFC34214DF2F7
:104500000340FDF7CAFC00214DF20440FDF7C5FC55
:104510003A214DF20540FDF7C0FC00214DF2064066
:10452000FDF7BBFC4A214DF20740FDF7B6FC002128
:104530004DF20840FDF7B1FC5C214DF20940FDF75A
:10454000ACFC00214DF20A40FDF7A7FC81214DF2A1
:104550000B40FDF7A2FC00214DF20C40FDF79DFC45
:10456000A6214DF20D40FDF798FC00214DF20E40C2
:10457000FDF793FCE5214DF20F40FDF78EFC012184
:104580004DF21040FDF789FC13214DF21140FDF76B
:1045900084FC01214DF21240FDF77FFC54214DF2C5
:1045A0001340FDF77AFC01214DF21440FDF775FC34
:1045B00082214DF21540FDF770FC01214DF21640AD
:1045C000FDF76BFCCA214DF21740FDF766FC022196
:1045D0004DF21840FDF761FC00214DF21940FDF746
:1045E0005CFC02214DF21A40FDF757FC01214DF20F
:1045F0001B40FDF752FC00E003E302214DF21C409A
:10460000FDF74BFC34214DF21D40FDF746FC022125
:104610004DF21E40FDF741FC67214DF21F40FDF7B2
:104620003CFC02214DF22040FDF737FC84214DF285
:104630002140FDF732FC02214DF22240FDF72DFC16
:10464000A4214DF22340FDF728FC02214DF2244025
:10465000FDF723FCB7214DF22540FDF71EFC02219A
:104660004DF22640FDF719FCCF214DF22740FDF712
:1046700014FC02214DF22840FDF70FFCDE214DF223
:104680002940FDF70AFC02214DF22A40FDF705FC06
:10469000F2214DF22B40FDF700FC02214DF22C409F
:1046A000FDF7FBFBFE214DF22D40FDF7F6FB03214C
:1046B0004DF22E40FDF7F1FB10214DF22F40FDF79A
:1046C000ECFB03214DF23040FDF7E7FB33214DF2C7
:1046D0003140FDF7E2FB03214DF23240FDF7DDFBF7
:1046E0006D214DF23340FDF7D8FB00214FF45540CA
:1046F000FDF7D3FB33214DF20150FDF7CEFB002136
:104700004DF20250FDF7C9FB34214DF20350FDF785
:10471000C4FB00214DF20450FDF7BFFB3A214DF2DE
:104720000550FDF7BAFB00214DF20650FDF7B5FB31
:104730004A214DF20750FDF7B0FB00214DF2085021
:10474000FDF7ABFB5C214DF20950FDF7A6FB002104
:104750004DF20A50FDF7A1FB81214DF20B50FDF700
:104760009CFB00214DF20C50FDF797FBA6214DF26A
:104770000D50FDF792FB00214DF20E50FDF78DFB21
:10478000E5214DF20F50FDF788FB01214DF210504D
:10479000FDF783FB13214DF21150FDF77EFB012144
:1047A0004DF21250FDF779FB54214DF21350FDF7F5
:1047B00074FB01214DF21450FDF76FFB82214DF285
:1047C0001550FDF76AFB01214DF21650FDF765FB10
:1047D000CA214DF21750FDF760FB02214DF218502F
:1047E000FDF75BFB00214DF21950FDF756FB02214E
:1047F0004DF21A50FDF751FB01214DF21B50FDF710
:104800004CFB02214DF21C50FDF747FB34214DF2C9
:104810001D50FDF742FB02214DF21E50FDF73DFBFE
:1048200067214DF21F50FDF738FB02214DF2205059
:10483000FDF733FB84214DF22150FDF72EFB0221C1
:104840004DF22250FDF729FBA4214DF22350FDF734
:1048500024FB02214DF22450FDF71FFBB7214DF23E
:104860002550FDF71AFB02214DF22650FDF715FBEE
:10487000CF214DF22750FDF710FB02214DF22850B9
:10488000FDF70BFBDE214DF22950FDF706FB02215F
:104890004DF22A50FDF701FBF2214DF22B50FDF7AE
:1048A000FCFA02214DF22C50FDF7F7FAFE214DF2F1
:1048B0002D50FDF7F2FA03214DF22E50FDF7EDFADF
:1048C00010214DF22F50FDF7E8FA03214DF2305040
:1048D000FDF7E3FA33214DF23150FDF7DEFA032103
:1048E0004DF23250FDF7D9FA6D214DF23350FDF7FC
:1048F000D4FA00214FF45640FDF7CFFA33214DF2A0
:104900000160FDF7CAFA00214DF20260FDF7C5FA19
:1049100034214DF20360FDF7C0FA00214DF204602E
:10492000FDF7BBFA3A214DF20560FDF7B6FA00211A
:104930004DF20660FDF7B1FA4A214DF20760FDF72E
:10494000ACFA00214DF20860FDF7A7FA5C214DF2A8
:104950000960FDF7A2FA00214DF20A60FDF79DFA09
:1049600081214DF20B60FDF798FA00214DF20C60A9
:10497000FDF793FAA6214DF20D60FDF78EFA0021A6
:104980004DF20E60FDF789FAE5214DF20F60FDF75B
:1049900084FA01214DF21060FDF77FFA13214DF2E8
:1049A0001160FDF77AFA01214DF21260FDF775FAF8
:1049B00054214DF21360FDF770FA01214DF214609D
:1049C000FDF76BFA82214DF21560FDF766FA0121C1
:1049D0004DF21660FDF761FACA214DF21760FDF73E
:1049E0005CFA02214DF21860FDF757FA00214DF2F2
:1049F0001960FDF752FA02214DF21A60FDF74DFAE7
:104A000001214DF21B60FDF748FA02214DF21C60B6
:104A1000FDF743FA34214DF21D60FDF73EFA022105
:104A20004DF21E60FDF739FA67214DF21F60FDF768
:104A300034FA02214DF22060FDF72FFA84214DF265
:104A40002160FDF72AFA02214DF22260FDF725FAD6
:104A5000A4214DF22360FDF720FA02214DF22460DB
:104A6000FDF71BFAB7214DF22560FDF716FA02217A
:104A70004DF22660FDF711FACF214DF22760FDF7C8
:104A80000CFA02214DF22860FDF707FADE214DF203
:104A90002960FDF702FA02214DF22A60FDF7FDF9C7
:104AA000F2214DF22B60FDF7F8F902214DF22C6056
:104AB000FDF7F3F9FE214DF22D60FDF7EEF903212C
:104AC0004DF22E60FDF7E9F910214DF22F60FDF750
:104AD000E4F903214DF23060FDF7DFF933214DF2A7
:104AE0003160FDF7DAF903214DF23260FDF7D5F9B7
:104AF0006D214DF23360FDF7D0F955214FF4704030
:104B0000FDF7CBF9AA214FF20100FDF7C6F95221BA
:104B10004FF20200FDF7C1F908214FF20300FDF743
:104B2000BCF900214FF20400FDF7B7F9CC214FF496
:104B30003140FDF7B2F900214BF20110FDF7ADF95C
:104B400005214FF43640FDF7A8F970214FF43740A6
:104B5000FDF7A3F970214BF20170FDF79EF90121D9
:104B60004FF43840FDF799F903214BF60100FDF7AA
:104B700094F903214BF60200FDF78FF903214BF660
:104B80000300FDF78AF902214FF43C40FDF785F957
:104B900000214BF60140FDF780F900214BF6024061
:104BA000FDF77BF9D0214FF44940FDF776F902215A
:104BB0004CF60110FDF771F950214CF60210FDF78B
:104BC0006CF950214CF60310FDF767F950214CF6B3
:104BD0000410FDF762F900214FF45450FDF75DF920
:104BE00055214FF46850FDF758F94FF48850FDF700
:104BF00045F9782004F029FF4FF42450FDF73EF9E1
:104C0000BDE0FE48808841F663118842F8D1E22079
:104C1000FDF734F91D20FDF734F90220FDF731F9D5
:104C20000420FDF72EF9642004F00FFFE020FDF7CB
:104C300025F90120FDF725F90A2004F02AFFE020DC
:104C4000FDF71CF90320FDF71CF90C2004F021FFEF
:104C50000120FDF713F90A2004F01BFFE620FDF701
:104C60000DF92F20FDF70DF9FF20FDF70AF9FF20C0
:104C7000FDF707F9B020FDF701F92020FDF701F954
:104C80000020FDF7FEF80320FDF7FBF840F21F308F
:104C9000FDF7F7F80120FDF7F4F840F2DF10FDF71B
:104CA000F0F80020FDF7EDF8B420FDF7E7F8042058
:104CB000FDF7E7F840F21F40FDF7E3F80020FDF7AD
:104CC000E0F82E20FDF7DDF80020FDF7DAF80020EF
:104CD000FDF7D7F80020FDF7D4F80020FDF7D1F854
:104CE000B620FDF7CBF80220FDF7CBF84FF40370A8
:104CF000FDF7C7F80020FDF7C4F81720FDF7C1F84D
:104D00001520FDF7BEF80020FDF7BBF80020FDF7E9
:104D1000B8F8F020FDF7B2F80320FDF7B2F829202B
:104D2000FDF7ACF8D020FDF7A9F80020FDF7A9F8B1
:104D3000BE20FDF7A3F80520FDF7A3F8FE20FDF740
:104D4000A0F80120FDF79DF80020FDF79AF800205B
:104D5000FDF797F80020FDF794F8B820FDF78EF8DE
:104D60000320FDF78EF80120FDF78BF8BA20FDF740
:104D700085F80120FDF785F86420FDF747FB00204A
:104D8000FDF76CFB01209E4908604FF6FF70FDF7B0
:104D9000B0FC1FB000BD2DE9F04F05460E4617468A
:104DA0009846DDF824A04FF0000B781B401C1FFA3A
:104DB00080FB344613E021462846FDF79BF8FDF7BB
:104DC0007CF84FF0000906E08E48A0F800A009F139
:104DD00001001FFA80F9D945F6DB601C84B2444516
:104DE000E9DDBDE8F08F2DE9F84F07460D46904606
:104DF0009946DDF828B0A8EB0700401C1FFA80FA9E
:104E0000A9EB0500401C80B20090002414E0281992
:104E100081B23846FDF76EF8FDF74FF8002607E03F
:104E200004FB0A603BF8100076490880701C86B2CB
:104E30005645F5DB601C84B200988442E7DBBDE890
:104E4000F88F2DE9FF4F84B081468A4600200390F9
:104E500002900698A0EB09050798A0EB0A06CDF88A
:104E60000490CDF800A0002D01DD012705E00DB96B
:104E7000002702E04FF0FF376D42002E02DD4FF0B9
:104E8000010806E016B94FF0000802E04FF0FF38C5
:104E90007642B54201DD2C4600E034464FF0000B6F
:104EA00021E0009A91B2019A90B2FDF72CFA039892
:104EB000284403900298304402900398A04205DDF4
:104EC0000398001B03900198384401900298A04277
:104ED00005DD0298001B02900098404400900BF101
:104EE00001001FFA80FB601C8345DADD08B0BDE8D5
:104EF000F08FF0B504460D4616461F462B46324647
:104F000029462046FFF79DFF3B462246294620467C
:104F1000FFF797FF3B46324639462046FFF791FFA1
:104F20003B46324629463046FFF78BFFF0BD2DE960
:104F3000F04306460F469046002445460320A0EB6A
:104F400048093CE07A1B91B2321990B2FDF7DBF9C7
:104F50003A1B91B2721990B2FDF7D5F93A1991B294
:104F6000721990B2FDF7CFF97A1991B2321990B255
:104F7000FDF7C9F97A1991B2321B90B2FDF7C3F966
:104F80003A1991B2721B90B2FDF7BDF97A1B91B23A
:104F9000321B90B2FDF7B7F93A1B91B2721B90B277
:104FA000FDF7B1F9641CB9F1000F03DAA000801D10
:104FB000814404E0601B80000A3081446D1EAC42D5
:104FC000C0DDBDE8F0832DE9F84F80460E46174658
:104FD0001C46B3462046E31704EB5373DB1021460F
:104FE0004FEAE47C04EB5C7C4FEAEC0CA4EBCC0CC9
:104FF000BCF1000F08D04FF0010C07E03402002094
:10500000808121420008006C4FF0000C634422466E
:1050100004EBD27C4FEA6C0C03FB0CF3DBB2009385
:10502000A7F12000C7B2002556E00C2C07D107EBF2
:1050300047009F4901EB800010F8059013E0102C09
:1050400005D19C4800EB071010F805900BE0182CD8
:1050500007D107EBC700984901EB800010F80590D5
:1050600001E0BDE8F88F4FF0000A2FE009F0800062
:1050700030B19248028831464046FDF752F907E0C8
:105080000A9828B98E48028831464046FDF749F90A
:105090004FEA49604FEA1069701C86B2894840881F
:1050A000B04200DCDDE7A6EB0B00A0420AD15E4671
:1050B00008F101001FFA80F882480088404500DCB2
:1050C000CFE706E00AF1010000F0FF0ABAF1080F8D
:1050D000CCDB00BF681CC5B200988542A5DB00BFD1
:1050E000BFE710B50246012000E050430B00A1F1DC
:1050F0000104E1B2F9D110BD2DE9FF4F81B007469F
:1051000091461E460E9D4FF0000A002439E0301BE8
:10511000401EC1B20A20FFF7E4FFB9FBF0F00A21FC
:10512000B0FBF1F201FB1208BAF1000F16D1701EAC
:10513000A04213DDB8F1000F0ED10020AB4605EB05
:10514000DB71491001FB0471009088B22B462022CC
:105150000299FFF738FF12E04FF0010A0020AB463A
:1051600005EBDB71491001FB0471009088B208F176
:105170003001CAB22B460299FFF725FF00BF601C21
:10518000C4B2B442C3DB05B0BDE8F08F2DE9FF4FD8
:1051900082B0064692461F46DDE90F480020019086
:1051A00000254DE0781B401EC1B20A20FFF799FF91
:1051B000BAFBF0F00A21B0FBF1F201FB12090198F1
:1051C00050BB781EA84227DDB9F1000F22D108F0AC
:1051D000800078B108F00100A34604EBDB714910B0
:1051E00001FB0561009088B2234630220399FFF746
:1051F000EAFE0EE008F00100A34604EBDB71491063
:1052000001FB0561009088B2234620220399FFF735
:10521000DAFE13E00120019008F00100A34604EB40
:10522000DB71491001FB0561009088B209F1300182
:10523000CAB223460399FFF7C6FE00BF681CC5B279
:10524000BD42AFDB06B0BDE8F08F2DE9F84704465C
:105250000D4690469946DDE9096704F0FF0A08EB20
:1052600004001FFA80F809EB05001FFA80F916E028
:10527000444502DB5446A81985B24D4500DB14E0D5
:10528000002000903A78334629462046FFF79BFEDF
:10529000304606EBD07104EB61018CB27F1C38788C
:1052A0007E2802DC38782028E2DA00BFBDE8F887E3
:1052B0002E4C0108A2500108925601084600002019
:1052C000480000203402002070B50546002405E0A7
:1052D000601CC4B2C82C01DD002070BD02213A4818
:1052E00005F00DFD0028F3D02946374805F0B4FC41
:1052F000002405E0601CC4B2C82C01DD0020ECE7EE
:105300000121314805F0FBFC0028F3D02E4805F0C0
:10531000A5FCC0B2E1E700B587B00121082005F087
:105320003BFB0121880305F044FB4FF46040ADF8DE
:10533000180018208DF81B0003208DF81A0006A90C
:10534000224805F06DF84FF46041204805F015F94A
:105350000020ADF804004FF48270ADF80600002084
:10536000ADF808000220ADF80A000120ADF80C00ED
:105370004002ADF80E003820ADF810000020ADF866
:1053800012000720ADF8140001A90F4805F08EFBAC
:1053900001210D4805F02FFCFF20FFF795FF07B016
:1053A00000BD10B50446084800884FF6C771084094
:1053B00005490880084600882043088001210248EA
:1053C00005F019FC10BD000000380040000C014041
:1053D00010B500240020D14908609020FFF774FF29
:1053E0000020FFF771FF0020FFF76EFF0020FFF79E
:1053F0006BFFFF20FFF768FF44EA0024FF20FFF760
:1054000063FF04430120C649C1F8B001204610BD26
:1054100008B50121082005F0BFFA4FF48050ADF81F
:10542000000010208DF8030003208DF8020069466B
:10543000BC4804F0F5FF4FF48051BA4805F09DF8E0
:105440000120B6490860FFF766FF0020FFF7A9FFBB
:10545000FFF7BEFFB449088008BD10B50024002046
:10546000AE4908600520FFF72FFFFF20FFF72CFF54
:1054700004460120AA49C1F8B001204610BD10B56C
:1054800004460020A54908600120FFF71DFF2046C3
:10549000FFF71AFF0120A249C1F8B00110BD10B5F5
:1054A00000209E4908600620FFF70EFF01209C495E
:1054B000C1F8B00110BD10B5002098490860042063
:1054C000FFF702FF01209649C1F8B00110BD2DE998
:1054D000F04106460C46174600209049086003201C
:1054E000FFF7F2FEC4F30740FFF7EEFEC4F3072018
:1054F000FFF7EAFEE0B2FFF7E7FE002505E0FF2038
:10550000FFF7E2FE7055681C85B2BD42F7DB012053
:1055100082490860BDE8F08110B500BFFFF79DFF2C
:1055200000F001000028F9D110BD2DE9F041064638
:105530000C461746FFF7B3FF0020784908600220A9
:10554000FFF7C2FEC4F30740FFF7BEFEC4F3072017
:10555000FFF7BAFEE0B2FFF7B7FE002504E0705D8A
:10556000FFF7B2FE681C85B2BD42F8DB01206B4933
:105570000860FFF7D1FFBDE8F0812DE9F041074653
:105580000E461446F0B2C0F58075AC4200DC2546EC
:1055900012E02A4631463846FFF7C7FFAC4200D139
:1055A0000BE02F442E44601B84B2B4F5807F02DDF3
:1055B0004FF4807500E02546EBE700BFBDE8F081C1
:1055C00010B50446214659A00CF0C0FC2403FFF797
:1055D00066FFFFF7A1FF0020504908602020FFF779
:1055E00073FEC4F30740FFF76FFEC4F30720FFF715
:1055F0006BFEE0B2FFF768FE01204949C1F8B00137
:10560000FFF78AFF10BD2DE9F05F81460F46164671
:10561000DFF820B14FEA1738C7F30B0ACAF58054F8
:10562000A64200DC344644E04FEA08314FF4805291
:105630005846FFF74CFF002508E00AEB05001BF871
:105640000000FF2800D003E0681C85B2A542F4DB0F
:1056500000BFA54216DA4046FFF7B2FF002507E07B
:1056600019F8050005EB0A010BF80100681C85B26A
:10567000A542F5DB4FEA08314FF480525846FFF758
:105680007CFF04E0224639464846FFF776FFA642F3
:1056900000D10FE008F101084FF0000AA1442744AF
:1056A000301B86B2B6F5805F02DD4FF4805400E017
:1056B0003446B9E700BFBDE8F09F10B5FFF7EFFE35
:1056C000FFF72AFF002015490860C720FFF7FCFDFF
:1056D00001201349C1F8B001FFF71EFF10BD10B53E
:1056E00000200E490860B920FFF7EEFD01200C49AB
:1056F000C1F8B001032004F0A8F910BD10B50020D6
:1057000006490860AB20FFF7DFFD01200449C1F81E
:10571000B001032004F099F910BD0000B0812142CE
:1057200000802142000C01404A00002066653A25B5
:10573000780D0A004202002001460020012900D015
:1057400011B9FE4B197000E0262070470146FC4A53
:10575000506820F0FF0008435060704770B5044661
:1057600005E0F748456B05F0450000B100E0F8E7BB
:1057700000BF042006F0D1FC20B1042006F0D7FCC5
:10578000032070BD012006F0C8FC20B1012006F006
:10579000CEFC0120F5E7EA480069A04201D01020C4
:1057A000EFE740F2FF50E649886308464069082168
:1057B0000840C0B2E5E72DE9FC4107460D4600264A
:1057C00000240020009001900820DE49086010208D
:1057D0004860402088600020C8604FF48060086105
:1057E000084606F023FC1020FFF7B8FF044614B16A
:1057F0002046BDE8FC81D44800880004D1490860F7
:1058000037204860402088600020C8604FF48060E6
:105810000861084606F00AFC3720FFF79FFF0446A0
:105820000CB12046E5E74FF0FF30C849086008207A
:105830004860302088600220C86000200861012094
:105840004861084606F01BFC0020BE490860332072
:105850004860402088600020C8604FF48060086184
:10586000084606F0E3FB3320FFF778FF04460CB14F
:105870002046BEE70CE04FF4001006F04EFC38B1B5
:1058800006F01FFC4DF82600761C022E00D306E021
:10589000AB48406B40F22A6108400028EBD000BFC3
:1058A000082006F03AFC20B1082006F040FC042055
:1058B0009FE7022006F031FC20B1022006F037FC01
:1058C000022096E7202006F028FC20B1202006F0D8
:1058D0002EFC06208DE74FF4007006F01EFC28B168
:1058E0004FF4007006F023FC072082E740F2FF50DF
:1058F00006F01DFC00980006009901F47F4140EA83
:105900000120009901F47F0140EA1120009940EA4A
:105910001160686001980006019901F47F4140EA36
:105920000120019901F47F0140EA1120019940EA28
:105930001160286020465CE77CB505460024002005
:105940000090019000260DB1022600E000267C4860
:10595000406900F0007008B10E207CBD7A490988CA
:1059600088B26946FFF727FF04460CB12046F4E7EA
:10597000019800F4802060B37348008800047149E6
:10598000086037204860402088600020C8604FF4DD
:1059900080600861084606F049FB3720FFF7DEFE0D
:1059A00004460CB12046D8E76648066006206549E3
:1059B0004860402088600020C8604FF48060086123
:1059C000084606F033FB0620FFF7C8FE04462046D3
:1059D000C3E72520C1E770B5044600255C48007880
:1059E000032801D1272070BD5948007838B15848A4
:1059F0000078012803D056480078022818D1022CDC
:105A000001D32720EFE7E0B2FFF796FF05467DB907
:105A10004B48406820F4C0504949486008464068F7
:105A2000A1B240EAC1204649486008464068486043
:105A30002846D8E710B5044642480460072041498B
:105A40004860402088600020C8604FF48060086192
:105A5000084606F0EBFA0720FFF780FE10BDF0B510
:105A60000146002000223A4B1B7881F85630364B15
:105A70001B88A1F85430374B1B681A0E93090B7022
:105A8000C2F383034B7002F003038B70314B1B682E
:105A9000C3F30742CA702F4B1B88C3F307220A7156
:105AA0002C4B1A784A715B681A0E1301CB80294B74
:105AB0005B68C3F30742CB8843EA1213CB8002F042
:105AC0000F030B72234B9B88C3F30722D3094B723E
:105AD000C2F380138B72C2F34013CB72C2F3001374
